{
    "contractName": "election",
    "abi": [
        {
            "inputs": [
                {
                    "internalType": "address",
                    "name": "_owner",
                    "type": "address"
                },
                {
                    "internalType": "string",
                    "name": "_title",
                    "type": "string"
                },
                {
                    "internalType": "string",
                    "name": "_description",
                    "type": "string"
                },
                {
                    "internalType": "uint256",
                    "name": "time",
                    "type": "uint256"
                }
            ],
            "stateMutability": "nonpayable",
            "type": "constructor"
        },
        {
            "inputs": [
                {
                    "internalType": "string",
                    "name": "_name",
                    "type": "string"
                },
                {
                    "internalType": "string",
                    "name": "_slogan",
                    "type": "string"
                },
                {
                    "internalType": "string",
                    "name": "_logoUri",
                    "type": "string"
                },
                {
                    "internalType": "string",
                    "name": "_mail",
                    "type": "string"
                },
                {
                    "internalType": "string",
                    "name": "_address",
                    "type": "string"
                }
            ],
            "name": "addParty",
            "outputs": [],
            "stateMutability": "nonpayable",
            "type": "function"
        },
        {
            "inputs": [
                {
                    "internalType": "string",
                    "name": "_name",
                    "type": "string"
                },
                {
                    "internalType": "string",
                    "name": "_ppsn",
                    "type": "string"
                },
                {
                    "internalType": "uint128",
                    "name": "_dob",
                    "type": "uint128"
                },
                {
                    "internalType": "string",
                    "name": "_address",
                    "type": "string"
                },
                {
                    "internalType": "string",
                    "name": "photo",
                    "type": "string"
                },
                {
                    "internalType": "string",
                    "name": "email",
                    "type": "string"
                }
            ],
            "name": "addVoter",
            "outputs": [],
            "stateMutability": "nonpayable",
            "type": "function"
        },
        {
            "inputs": [
                {
                    "internalType": "address",
                    "name": "_voterAddress",
                    "type": "address"
                }
            ],
            "name": "checkVerification",
            "outputs": [
                {
                    "internalType": "string",
                    "name": "",
                    "type": "string"
                }
            ],
            "stateMutability": "view",
            "type": "function"
        },
        {
            "inputs": [],
            "name": "endElection",
            "outputs": [
                {
                    "internalType": "bool",
                    "name": "",
                    "type": "bool"
                }
            ],
            "stateMutability": "nonpayable",
            "type": "function"
        },
        {
            "inputs": [],
            "name": "getElectionDetails",
            "outputs": [
                {
                    "internalType": "string",
                    "name": "",
                    "type": "string"
                },
                {
                    "internalType": "string",
                    "name": "",
                    "type": "string"
                }
            ],
            "stateMutability": "view",
            "type": "function"
        },
        {
            "inputs": [],
            "name": "getNumOfParties",
            "outputs": [
                {
                    "internalType": "uint8",
                    "name": "",
                    "type": "uint8"
                }
            ],
            "stateMutability": "view",
            "type": "function"
        },
        {
            "inputs": [],
            "name": "getNumOfVoters",
            "outputs": [
                {
                    "internalType": "uint8",
                    "name": "",
                    "type": "uint8"
                }
            ],
            "stateMutability": "view",
            "type": "function"
        },
        {
            "inputs": [
                {
                    "internalType": "uint8",
                    "name": "id",
                    "type": "uint8"
                }
            ],
            "name": "getVoterDetails",
            "outputs": [
                {
                    "components": [
                        {
                            "internalType": "string",
                            "name": "name",
                            "type": "string"
                        },
                        {
                            "internalType": "string",
                            "name": "ppsnNumber",
                            "type": "string"
                        },
                        {
                            "internalType": "uint128",
                            "name": "dob",
                            "type": "uint128"
                        },
                        {
                            "internalType": "string",
                            "name": "residentialAddress",
                            "type": "string"
                        },
                        {
                            "internalType": "string",
                            "name": "photoUri",
                            "type": "string"
                        },
                        {
                            "internalType": "string",
                            "name": "email",
                            "type": "string"
                        },
                        {
                            "internalType": "address",
                            "name": "wallet",
                            "type": "address"
                        },
                        {
                            "internalType": "bool",
                            "name": "verified",
                            "type": "bool"
                        },
                        {
                            "internalType": "bool",
                            "name": "voted",
                            "type": "bool"
                        }
                    ],
                    "internalType": "struct election.Voter",
                    "name": "",
                    "type": "tuple"
                }
            ],
            "stateMutability": "view",
            "type": "function"
        },
        {
            "inputs": [
                {
                    "internalType": "address",
                    "name": "_wallet",
                    "type": "address"
                }
            ],
            "name": "isRegistered",
            "outputs": [
                {
                    "internalType": "uint8",
                    "name": "",
                    "type": "uint8"
                }
            ],
            "stateMutability": "view",
            "type": "function"
        },
        {
            "inputs": [],
            "name": "owner",
            "outputs": [
                {
                    "internalType": "address",
                    "name": "",
                    "type": "address"
                }
            ],
            "stateMutability": "view",
            "type": "function"
        },
        {
            "inputs": [
                {
                    "internalType": "uint8",
                    "name": "",
                    "type": "uint8"
                }
            ],
            "name": "parties",
            "outputs": [
                {
                    "internalType": "string",
                    "name": "partyName",
                    "type": "string"
                },
                {
                    "internalType": "string",
                    "name": "partySlogan",
                    "type": "string"
                },
                {
                    "internalType": "string",
                    "name": "logoUri",
                    "type": "string"
                },
                {
                    "internalType": "uint16",
                    "name": "voteCount",
                    "type": "uint16"
                },
                {
                    "internalType": "string",
                    "name": "contactEmail",
                    "type": "string"
                },
                {
                    "internalType": "string",
                    "name": "officeAddress",
                    "type": "string"
                }
            ],
            "stateMutability": "view",
            "type": "function"
        },
        {
            "inputs": [
                {
                    "internalType": "string",
                    "name": "assetURI",
                    "type": "string"
                },
                {
                    "internalType": "uint8",
                    "name": "_voterId",
                    "type": "uint8"
                }
            ],
            "name": "uploadVerification",
            "outputs": [],
            "stateMutability": "nonpayable",
            "type": "function"
        },
        {
            "inputs": [
                {
                    "internalType": "uint8",
                    "name": "id",
                    "type": "uint8"
                }
            ],
            "name": "verifyVoter",
            "outputs": [
                {
                    "internalType": "string",
                    "name": "",
                    "type": "string"
                }
            ],
            "stateMutability": "nonpayable",
            "type": "function"
        },
        {
            "inputs": [
                {
                    "internalType": "uint8",
                    "name": "_partyId",
                    "type": "uint8"
                },
                {
                    "internalType": "uint8",
                    "name": "_voterId",
                    "type": "uint8"
                }
            ],
            "name": "vote",
            "outputs": [
                {
                    "internalType": "string",
                    "name": "",
                    "type": "string"
                }
            ],
            "stateMutability": "nonpayable",
            "type": "function"
        },
        {
            "inputs": [],
            "name": "winnerDetails",
            "outputs": [
                {
                    "components": [
                        {
                            "internalType": "string",
                            "name": "partyName",
                            "type": "string"
                        },
                        {
                            "internalType": "string",
                            "name": "partySlogan",
                            "type": "string"
                        },
                        {
                            "internalType": "string",
                            "name": "logoUri",
                            "type": "string"
                        },
                        {
                            "internalType": "uint16",
                            "name": "voteCount",
                            "type": "uint16"
                        },
                        {
                            "internalType": "string",
                            "name": "contactEmail",
                            "type": "string"
                        },
                        {
                            "internalType": "string",
                            "name": "officeAddress",
                            "type": "string"
                        }
                    ],
                    "internalType": "struct election.politicalParty",
                    "name": "",
                    "type": "tuple"
                }
            ],
            "stateMutability": "view",
            "type": "function"
        }
    ],
    "bytecode": "60806040526008805461ffff19166101011790553480156200002057600080fd5b50604051620027603803806200276083398101604081905262000043916200015f565b600080546001600160a01b0319166001600160a01b03861617905560016200006c848262000280565b5060026200007b838262000280565b5060035550506004805460ff19169055506200034c565b634e487b7160e01b600052604160045260246000fd5b600082601f830112620000ba57600080fd5b81516001600160401b0380821115620000d757620000d762000092565b604051601f8301601f19908116603f0116810190828211818310171562000102576200010262000092565b816040528381526020925086838588010111156200011f57600080fd5b600091505b8382101562000143578582018301518183018401529082019062000124565b83821115620001555760008385830101525b9695505050505050565b600080600080608085870312156200017657600080fd5b84516001600160a01b03811681146200018e57600080fd5b60208601519094506001600160401b0380821115620001ac57600080fd5b620001ba88838901620000a8565b94506040870151915080821115620001d157600080fd5b50620001e087828801620000a8565b606096909601519497939650505050565b600181811c908216806200020657607f821691505b6020821081036200022757634e487b7160e01b600052602260045260246000fd5b50919050565b601f8211156200027b57600081815260208120601f850160051c81016020861015620002565750805b601f850160051c820191505b81811015620002775782815560010162000262565b5050505b505050565b81516001600160401b038111156200029c576200029c62000092565b620002b481620002ad8454620001f1565b846200022d565b602080601f831160018114620002ec5760008415620002d35750858301515b600019600386901b1c1916600185901b17855562000277565b600085815260208120601f198616915b828110156200031d57888601518255948401946001909101908401620002fc565b50858210156200033c5787850151600019600388901b60f8161c191681555b5050505050600190811b01905550565b612404806200035c6000396000f3fe608060405234801561001057600080fd5b50600436106100f55760003560e01c8063acc84cde11610097578063e1f6c6c111610066578063e1f6c6c11461020e578063ed836bc31461022e578063ed8bddeb14610244578063f900cf741461025957600080fd5b8063acc84cde146101b5578063baab9797146101c8578063c3c5a547146101e8578063df49c4de146101fb57600080fd5b806365fc783c116100d357806365fc783c146101555780637db135cb1461016f5780638da5cb5b14610182578063a38ca972146101ad57600080fd5b80632f85f849146100fa5780633e06921a1461012857806359f784681461013d575b600080fd5b61010d610108366004611b53565b61026c565b60405161011f96959493929190611bc2565b60405180910390f35b61013b610136366004611cf4565b610552565b005b610145610802565b604051901515815260200161011f565b61015d6108d6565b60405160ff909116815260200161011f565b61013b61017d366004611dd5565b6108f5565b600054610195906001600160a01b031681565b6040516001600160a01b03909116815260200161011f565b61015d610a9b565b61013b6101c3366004611e23565b610ab0565b6101db6101d6366004611ef5565b610c2e565b60405161011f9190611f1e565b61015d6101f6366004611ef5565b610dff565b6101db610209366004611f31565b610e64565b61022161021c366004611b53565b61110b565b60405161011f9190611f5b565b6102366114f2565b60405161011f929190612051565b61024c611619565b60405161011f919061207f565b6101db610267366004611b53565b611a20565b6005602052600090815260409020805481906102879061211f565b80601f01602080910402602001604051908101604052809291908181526020018280546102b39061211f565b80156103005780601f106102d557610100808354040283529160200191610300565b820191906000526020600020905b8154815290600101906020018083116102e357829003601f168201915b5050505050908060010180546103159061211f565b80601f01602080910402602001604051908101604052809291908181526020018280546103419061211f565b801561038e5780601f106103635761010080835404028352916020019161038e565b820191906000526020600020905b81548152906001019060200180831161037157829003601f168201915b5050505050908060020180546103a39061211f565b80601f01602080910402602001604051908101604052809291908181526020018280546103cf9061211f565b801561041c5780601f106103f15761010080835404028352916020019161041c565b820191906000526020600020905b8154815290600101906020018083116103ff57829003601f168201915b5050506003840154600485018054949561ffff9092169491935091506104419061211f565b80601f016020809104026020016040519081016040528092919081815260200182805461046d9061211f565b80156104ba5780601f1061048f576101008083540402835291602001916104ba565b820191906000526020600020905b81548152906001019060200180831161049d57829003601f168201915b5050505050908060050180546104cf9061211f565b80601f01602080910402602001604051908101604052809291908181526020018280546104fb9061211f565b80156105485780601f1061051d57610100808354040283529160200191610548565b820191906000526020600020905b81548152906001019060200180831161052b57829003601f168201915b5050505050905086565b600060015b60085460ff610100909104811690821610156105b05760ff811660009081526006602081905260409091200154336001600160a01b039091160361059e57600191506105b0565b806105a88161216f565b915050610557565b5080156106045760405162461bcd60e51b815260206004820152601c60248201527f596f75206861766520616c726561647920726567697374657265642e0000000060448201526064015b60405180910390fd5b600054336001600160a01b03909116036106785760405162461bcd60e51b815260206004820152602f60248201527f596f7520646f6e277420686176652074686520617574686f7269747920746f2060448201526e31b932b0ba329030902b37ba32b91760891b60648201526084016105fb565b600854604080516101208101825289815260208082018a90526001600160801b03891682840152606082018890526080820187905260a082018690523360c0830152600060e0830181905261010080840182905290940460ff16808552600690915291909220825191929181906106ef90826121dc565b506020820151600182019061070490826121dc565b5060408201516002820180546fffffffffffffffffffffffffffffffff19166001600160801b039092169190911790556060820151600382019061074890826121dc565b506080820151600482019061075d90826121dc565b5060a0820151600582019061077290826121dc565b5060c08201516006909101805460e0840151610100948501511515600160a81b0260ff60a81b19911515600160a01b026001600160a81b03199093166001600160a01b03909516949094179190911716919091179055600880549190910460ff169060016107df8361216f565b91906101000a81548160ff021916908360ff160217905550505050505050505050565b600080546001600160a01b0316331461086f5760405162461bcd60e51b815260206004820152602960248201527f596f7520646f6e2774206861766520617574686f7269747920746f20656e642060448201526832b632b1ba34b7b71760b91b60648201526084016105fb565b60045460ff16156108c25760405162461bcd60e51b815260206004820152601760248201527f456c656374696f6e20616c726561647920656e6465642e00000000000000000060448201526064016105fb565b506004805460ff1916600190811790915590565b6008546000906108f090600190610100900460ff1661229c565b905090565b60ff8116600090815260066020819052604090912001546001600160a01b0316331461097c5760405162461bcd60e51b815260206004820152603060248201527f596f7520646f6e2774206861766520617574686f7269747920746f2075706c6f60448201526f30b2103b32b934b334b1b0ba34b7b71760811b60648201526084016105fb565b60408051600080825260208083018085528351902033835260079091529083902090926109a992016122bf565b604051602081830303815290604052805190602001201480610a215750604051600160fd1b602082015260210160408051601f19818403018152828252805160209182012033600090815260078352929092209192610a099291016122bf565b60405160208183030381529060405280519060200120145b610a7d5760405162461bcd60e51b815260206004820152602760248201527f596f75206861766520616c72656164792075706c6f616465642076657269666960448201526631b0ba34b7b71760c91b60648201526084016105fb565b336000908152600760205260409020610a9683826121dc565b505050565b6008546000906108f09060019060ff1661229c565b6000546001600160a01b03163314610b305760405162461bcd60e51b815260206004820152603960248201527f596f7520646f6e277420686176652074686520617574686f7269747920746f2060448201527f637265617465206120506f6c69746963616c2050617274792e0000000000000060648201526084016105fb565b6008546040805160c08101825287815260208082018890528183018790526000606083018190526080830187905260a0830186905260ff90941680855260059091529190922082519192918190610b8790826121dc565b5060208201516001820190610b9c90826121dc565b5060408201516002820190610bb190826121dc565b50606082015160038201805461ffff191661ffff90921691909117905560808201516004820190610be290826121dc565b5060a08201516005820190610bf790826121dc565b50506008805460ff1691506000610c0d8361216f565b91906101000a81548160ff021916908360ff16021790555050505050505050565b6000546060906001600160a01b0316331480610c525750336001600160a01b038316145b610c6e5760405162461bcd60e51b81526004016105fb90612335565b6040805160008082526020808301808552835190206001600160a01b03871683526007909152908390209092610ca492016122bf565b604051602081830303815290604052805190602001201480610d255750604051600160fd1b602082015260210160408051601f1981840301815282825280516020918201206001600160a01b038616600090815260078352929092209192610d0d9291016122bf565b60405160208183030381529060405280519060200120145b15610d5257505060408051808201909152600c81526b139bdd0815995c9a599a595960a21b602082015290565b6001600160a01b03821660009081526007602052604090208054610d759061211f565b80601f0160208091040260200160405190810160405280929190818152602001828054610da19061211f565b8015610dee5780601f10610dc357610100808354040283529160200191610dee565b820191906000526020600020905b815481529060010190602001808311610dd157829003601f168201915b50505050509050919050565b919050565b600060015b60085460ff61010090910481169082161015610e5b5760ff8116600090815260066020819052604090912001546001600160a01b03808516911603610e495792915050565b80610e538161216f565b915050610e04565b50600092915050565b60ff8116600090815260066020819052604090912001546060906001600160a01b03163314610ed55760405162461bcd60e51b815260206004820181905260248201527f596f752063616e277420766f7465206f6e206f746865727320626568616c662e60448201526064016105fb565b60ff80831660009081526006602081905260409091200154600160a81b90041615610f425760405162461bcd60e51b815260206004820152601760248201527f596f752063616e6e6f7420646f75626c6520766f74652e00000000000000000060448201526064016105fb565b600354421115610f865760405162461bcd60e51b815260206004820152600f60248201526e22b632b1ba34b7b71032b73232b21760891b60448201526064016105fb565b60ff80831660009081526006602081905260409091200154600160a01b900416610fea5760405162461bcd60e51b81526020600482015260156024820152742cb7ba9030b932903737ba103b32b934b334b2b21760591b60448201526064016105fb565b60085460ff908116908416108015611005575060008360ff16115b6110685760405162461bcd60e51b815260206004820152602e60248201527f596f752063616e277420766f746520666f72206120706172747920746861742060448201526d3237b2b9b713ba1032bc34b9ba1760911b60648201526084016105fb565b60ff8083166000908152600660208181526040808420909201805460ff60a81b1916600160a81b17905592861682526005909252908120600301805461ffff16916110b283612389565b91906101000a81548161ffff021916908361ffff160217905550506040518060400160405280601c81526020017f596f75206861766520766f746564207375636365737366756c6c792100000000815250905092915050565b604080516101208101825260608082526020820181905260009282018390528082018190526080820181905260a082015260c0810182905260e081018290526101008101919091526000546001600160a01b031633148061118a575060ff8216600090815260066020819052604090912001546001600160a01b031633145b6111a65760405162461bcd60e51b81526004016105fb90612335565b60ff821660009081526006602052604090819020815161012081019092528054829082906111d39061211f565b80601f01602080910402602001604051908101604052809291908181526020018280546111ff9061211f565b801561124c5780601f106112215761010080835404028352916020019161124c565b820191906000526020600020905b81548152906001019060200180831161122f57829003601f168201915b505050505081526020016001820180546112659061211f565b80601f01602080910402602001604051908101604052809291908181526020018280546112919061211f565b80156112de5780601f106112b3576101008083540402835291602001916112de565b820191906000526020600020905b8154815290600101906020018083116112c157829003601f168201915b505050918352505060028201546001600160801b0316602082015260038201805460409092019161130e9061211f565b80601f016020809104026020016040519081016040528092919081815260200182805461133a9061211f565b80156113875780601f1061135c57610100808354040283529160200191611387565b820191906000526020600020905b81548152906001019060200180831161136a57829003601f168201915b505050505081526020016004820180546113a09061211f565b80601f01602080910402602001604051908101604052809291908181526020018280546113cc9061211f565b80156114195780601f106113ee57610100808354040283529160200191611419565b820191906000526020600020905b8154815290600101906020018083116113fc57829003601f168201915b505050505081526020016005820180546114329061211f565b80601f016020809104026020016040519081016040528092919081815260200182805461145e9061211f565b80156114ab5780601f10611480576101008083540402835291602001916114ab565b820191906000526020600020905b81548152906001019060200180831161148e57829003601f168201915b5050509183525050600691909101546001600160a01b038116602083015260ff600160a01b8204811615156040840152600160a81b90910416151560609091015292915050565b606080600160028180546115059061211f565b80601f01602080910402602001604051908101604052809291908181526020018280546115319061211f565b801561157e5780601f106115535761010080835404028352916020019161157e565b820191906000526020600020905b81548152906001019060200180831161156157829003601f168201915b505050505091508080546115919061211f565b80601f01602080910402602001604051908101604052809291908181526020018280546115bd9061211f565b801561160a5780601f106115df5761010080835404028352916020019161160a565b820191906000526020600020905b8154815290600101906020018083116115ed57829003601f168201915b50505050509050915091509091565b6116566040518060c00160405280606081526020016060815260200160608152602001600061ffff16815260200160608152602001606081525090565b60045460ff166116a85760405162461bcd60e51b815260206004820152601760248201527f456c656374696f6e206e6f7420656e646564207965742e00000000000000000060448201526064016105fb565b600060015b60085460ff90811690821610156117115760ff811660009081526005602052604081206003015461ffff16156116fe575060ff8116600090815260056020526040902060030154909150819061ffff165b50806117098161216f565b9150506116ad565b5060ff811660009081526005602052604090819020815160c0810190925280548290829061173e9061211f565b80601f016020809104026020016040519081016040528092919081815260200182805461176a9061211f565b80156117b75780601f1061178c576101008083540402835291602001916117b7565b820191906000526020600020905b81548152906001019060200180831161179a57829003601f168201915b505050505081526020016001820180546117d09061211f565b80601f01602080910402602001604051908101604052809291908181526020018280546117fc9061211f565b80156118495780601f1061181e57610100808354040283529160200191611849565b820191906000526020600020905b81548152906001019060200180831161182c57829003601f168201915b505050505081526020016002820180546118629061211f565b80601f016020809104026020016040519081016040528092919081815260200182805461188e9061211f565b80156118db5780601f106118b0576101008083540402835291602001916118db565b820191906000526020600020905b8154815290600101906020018083116118be57829003601f168201915b5050509183525050600382015461ffff1660208201526004820180546040909201916119069061211f565b80601f01602080910402602001604051908101604052809291908181526020018280546119329061211f565b801561197f5780601f106119545761010080835404028352916020019161197f565b820191906000526020600020905b81548152906001019060200180831161196257829003601f168201915b505050505081526020016005820180546119989061211f565b80601f01602080910402602001604051908101604052809291908181526020018280546119c49061211f565b8015611a115780601f106119e657610100808354040283529160200191611a11565b820191906000526020600020905b8154815290600101906020018083116119f457829003601f168201915b50505050508152505091505090565b6000546060906001600160a01b03163314611a8f5760405162461bcd60e51b815260206004820152602960248201527f596f7520646f6e2774206861766520617574686f7269747920746f2076657269604482015268667920766f7465727360b81b60648201526084016105fb565b60ff80831660009081526006602081905260409091200154600160a01b90041615611afc5760405162461bcd60e51b815260206004820152601760248201527f566f74657220616c72656164792076657269666965642e00000000000000000060448201526064016105fb565b60ff8216600090815260066020818152604092839020909101805460ff60a01b1916600160a01b1790558151606081019092526024808352906123ab9083013992915050565b803560ff81168114610dfa57600080fd5b600060208284031215611b6557600080fd5b611b6e82611b42565b9392505050565b6000815180845260005b81811015611b9b57602081850181015186830182015201611b7f565b81811115611bad576000602083870101525b50601f01601f19169290920160200192915050565b60c081526000611bd560c0830189611b75565b8281036020840152611be78189611b75565b90508281036040840152611bfb8188611b75565b905061ffff861660608401528281036080840152611c198186611b75565b905082810360a0840152611c2d8185611b75565b9998505050505050505050565b634e487b7160e01b600052604160045260246000fd5b600082601f830112611c6157600080fd5b813567ffffffffffffffff80821115611c7c57611c7c611c3a565b604051601f8301601f19908116603f01168101908282118183101715611ca457611ca4611c3a565b81604052838152866020858801011115611cbd57600080fd5b836020870160208301376000602085830101528094505050505092915050565b80356001600160801b0381168114610dfa57600080fd5b60008060008060008060c08789031215611d0d57600080fd5b863567ffffffffffffffff80821115611d2557600080fd5b611d318a838b01611c50565b97506020890135915080821115611d4757600080fd5b611d538a838b01611c50565b9650611d6160408a01611cdd565b95506060890135915080821115611d7757600080fd5b611d838a838b01611c50565b94506080890135915080821115611d9957600080fd5b611da58a838b01611c50565b935060a0890135915080821115611dbb57600080fd5b50611dc889828a01611c50565b9150509295509295509295565b60008060408385031215611de857600080fd5b823567ffffffffffffffff811115611dff57600080fd5b611e0b85828601611c50565b925050611e1a60208401611b42565b90509250929050565b600080600080600060a08688031215611e3b57600080fd5b853567ffffffffffffffff80821115611e5357600080fd5b611e5f89838a01611c50565b96506020880135915080821115611e7557600080fd5b611e8189838a01611c50565b95506040880135915080821115611e9757600080fd5b611ea389838a01611c50565b94506060880135915080821115611eb957600080fd5b611ec589838a01611c50565b93506080880135915080821115611edb57600080fd5b50611ee888828901611c50565b9150509295509295909350565b600060208284031215611f0757600080fd5b81356001600160a01b0381168114611b6e57600080fd5b602081526000611b6e6020830184611b75565b60008060408385031215611f4457600080fd5b611f4d83611b42565b9150611e1a60208401611b42565b6020815260008251610120806020850152611f7a610140850183611b75565b91506020850151601f1980868503016040870152611f988483611b75565b935060408701519150611fb660608701836001600160801b03169052565b6060870151915080868503016080870152611fd18483611b75565b935060808701519150808685030160a0870152611fee8483611b75565b935060a08701519150808685030160c08701525061200c8382611b75565b92505060c085015161202960e08601826001600160a01b03169052565b5060e085015161010061203f8187018315159052565b90950151151593019290925250919050565b6040815260006120646040830185611b75565b82810360208401526120768185611b75565b95945050505050565b602081526000825160c0602084015261209b60e0840182611b75565b90506020840151601f19808584030160408601526120b98383611b75565b925060408601519150808584030160608601526120d68383611b75565b925061ffff606087015116608086015260808601519150808584030160a08601526121018383611b75565b925060a08601519150808584030160c0860152506120768282611b75565b600181811c9082168061213357607f821691505b60208210810361215357634e487b7160e01b600052602260045260246000fd5b50919050565b634e487b7160e01b600052601160045260246000fd5b600060ff821660ff810361218557612185612159565b60010192915050565b601f821115610a9657600081815260208120601f850160051c810160208610156121b55750805b601f850160051c820191505b818110156121d4578281556001016121c1565b505050505050565b815167ffffffffffffffff8111156121f6576121f6611c3a565b61220a81612204845461211f565b8461218e565b602080601f83116001811461223f57600084156122275750858301515b600019600386901b1c1916600185901b1785556121d4565b600085815260208120601f198616915b8281101561226e5788860151825594840194600190910190840161224f565b508582101561228c5787850151600019600388901b60f8161c191681555b5050505050600190811b01905550565b600060ff821660ff8416808210156122b6576122b6612159565b90039392505050565b60008083546122cd8161211f565b600182811680156122e557600181146122fa57612329565b60ff1984168752821515830287019450612329565b8760005260208060002060005b858110156123205781548a820152908401908201612307565b50505082870194505b50929695505050505050565b60208082526034908201527f596f7520646f6e2774206861766520617574686f7269747920746f206163636560408201527339b9903a3434b99034b73337b936b0ba34b7b71760611b606082015260800190565b600061ffff8083168181036123a0576123a0612159565b600101939250505056fe596f752068617665206265656e207665726966696564207375636365737366756c6c7921a2646970667358221220226a964bd7c4d884d79f387de67e7d9248e6d2a7be01ede9428b6f385ffaf42264736f6c634300080f0033",
    "sourcePath": "e:/GitHub/blockchain-voting/src/web3/contracts/election.sol",
    "compiler": {
        "name": "solc",
        "version": "0.8.15+commit.e14f2714"
    },
    "functionHashes": {
        "addParty(string,string,string,string,string)": "acc84cde",
        "addVoter(string,string,uint128,string,string,string)": "3e06921a",
        "checkVerification(address)": "baab9797",
        "endElection()": "59f78468",
        "getElectionDetails()": "ed836bc3",
        "getNumOfParties()": "a38ca972",
        "getNumOfVoters()": "65fc783c",
        "getVoterDetails(uint8)": "e1f6c6c1",
        "isRegistered(address)": "c3c5a547",
        "owner()": "8da5cb5b",
        "parties(uint8)": "2f85f849",
        "uploadVerification(string,uint8)": "7db135cb",
        "verifyVoter(uint8)": "f900cf74",
        "vote(uint8,uint8)": "df49c4de",
        "winnerDetails()": "ed8bddeb"
    },
    "gasEstimates": {
        "creation": {
            "codeDepositCost": "1844000",
            "executionCost": "infinite",
            "totalCost": "infinite"
        },
        "external": {
            "addParty(string,string,string,string,string)": "infinite",
            "addVoter(string,string,uint128,string,string,string)": "infinite",
            "checkVerification(address)": "infinite",
            "endElection()": "28782",
            "getElectionDetails()": "infinite",
            "getNumOfParties()": "2520",
            "getNumOfVoters()": "2465",
            "getVoterDetails(uint8)": "infinite",
            "isRegistered(address)": "infinite",
            "owner()": "2404",
            "parties(uint8)": "infinite",
            "uploadVerification(string,uint8)": "infinite",
            "verifyVoter(uint8)": "infinite",
            "vote(uint8,uint8)": "infinite",
            "winnerDetails()": "infinite"
        }
    }
}