{
    "contractName": "votingFactory",
    "abi": [
        {
            "inputs": [],
            "stateMutability": "nonpayable",
            "type": "constructor"
        },
        {
            "inputs": [
                {
                    "internalType": "address",
                    "name": "",
                    "type": "address"
                }
            ],
            "name": "_authorityWallets",
            "outputs": [
                {
                    "internalType": "bool",
                    "name": "",
                    "type": "bool"
                }
            ],
            "stateMutability": "view",
            "type": "function"
        },
        {
            "inputs": [],
            "name": "_owner",
            "outputs": [
                {
                    "internalType": "address",
                    "name": "",
                    "type": "address"
                }
            ],
            "stateMutability": "view",
            "type": "function"
        },
        {
            "inputs": [
                {
                    "internalType": "address",
                    "name": "wallet",
                    "type": "address"
                }
            ],
            "name": "addAuthorityWallet",
            "outputs": [],
            "stateMutability": "nonpayable",
            "type": "function"
        },
        {
            "inputs": [
                {
                    "internalType": "string",
                    "name": "title",
                    "type": "string"
                },
                {
                    "internalType": "string",
                    "name": "description",
                    "type": "string"
                },
                {
                    "internalType": "uint256",
                    "name": "endTime",
                    "type": "uint256"
                }
            ],
            "name": "createElection",
            "outputs": [],
            "stateMutability": "nonpayable",
            "type": "function"
        },
        {
            "inputs": [],
            "name": "getActiveElections",
            "outputs": [
                {
                    "components": [
                        {
                            "internalType": "address",
                            "name": "deployedAddress",
                            "type": "address"
                        },
                        {
                            "internalType": "string",
                            "name": "electionName",
                            "type": "string"
                        },
                        {
                            "internalType": "string",
                            "name": "electionDesc",
                            "type": "string"
                        },
                        {
                            "internalType": "address",
                            "name": "authorityAddress",
                            "type": "address"
                        },
                        {
                            "internalType": "uint256",
                            "name": "endTime",
                            "type": "uint256"
                        }
                    ],
                    "internalType": "struct votingFactory.electionDetails[]",
                    "name": "",
                    "type": "tuple[]"
                }
            ],
            "stateMutability": "view",
            "type": "function"
        },
        {
            "inputs": [],
            "name": "getAllElections",
            "outputs": [
                {
                    "components": [
                        {
                            "internalType": "address",
                            "name": "deployedAddress",
                            "type": "address"
                        },
                        {
                            "internalType": "string",
                            "name": "electionName",
                            "type": "string"
                        },
                        {
                            "internalType": "string",
                            "name": "electionDesc",
                            "type": "string"
                        },
                        {
                            "internalType": "address",
                            "name": "authorityAddress",
                            "type": "address"
                        },
                        {
                            "internalType": "uint256",
                            "name": "endTime",
                            "type": "uint256"
                        }
                    ],
                    "internalType": "struct votingFactory.electionDetails[]",
                    "name": "",
                    "type": "tuple[]"
                }
            ],
            "stateMutability": "view",
            "type": "function"
        },
        {
            "inputs": [
                {
                    "internalType": "uint8",
                    "name": "id",
                    "type": "uint8"
                }
            ],
            "name": "getElection",
            "outputs": [
                {
                    "components": [
                        {
                            "internalType": "address",
                            "name": "deployedAddress",
                            "type": "address"
                        },
                        {
                            "internalType": "string",
                            "name": "electionName",
                            "type": "string"
                        },
                        {
                            "internalType": "string",
                            "name": "electionDesc",
                            "type": "string"
                        },
                        {
                            "internalType": "address",
                            "name": "authorityAddress",
                            "type": "address"
                        },
                        {
                            "internalType": "uint256",
                            "name": "endTime",
                            "type": "uint256"
                        }
                    ],
                    "internalType": "struct votingFactory.electionDetails",
                    "name": "",
                    "type": "tuple"
                }
            ],
            "stateMutability": "view",
            "type": "function"
        }
    ],
    "bytecode": "60806040526003805460ff1916600117905534801561001d57600080fd5b50600080546001600160a01b0319163390811782558152600160208190526040909120805460ff191690911790556132848061005a6000396000f3fe60806040523480156200001157600080fd5b5060043610620000875760003560e01c8063911cbef91162000062578063911cbef914620000ea578063a344cd5d1462000103578063b2bdfa7b146200011a578063cbaed41a146200014757600080fd5b8063138d552d146200008c5780637fd5f26814620000c75780638a3b63b014620000e0575b600080fd5b620000b26200009d36600462000b91565b60016020526000908152604090205460ff1681565b60405190151581526020015b60405180910390f35b620000d16200016d565b604051620000be919062000c7c565b620000d1620003c7565b62000101620000fb36600462000d8d565b62000649565b005b620001016200011436600462000b91565b620008ce565b6000546200012e906001600160a01b031681565b6040516001600160a01b039091168152602001620000be565b6200015e6200015836600462000e01565b620009b0565b604051620000be919062000e26565b600354606090600090620001879060019060ff1662000e51565b60ff1667ffffffffffffffff811115620001a557620001a562000ce2565b604051908082528060200260200182016040528015620001e257816020015b620001ce62000b42565b815260200190600190039081620001c45790505b50905060015b60035460ff9081169082161015620003c15760ff8116600090815260026020908152604091829020825160a0810190935280546001600160a01b0316835260018101805491928401916200023c9062000e77565b80601f01602080910402602001604051908101604052809291908181526020018280546200026a9062000e77565b8015620002bb5780601f106200028f57610100808354040283529160200191620002bb565b820191906000526020600020905b8154815290600101906020018083116200029d57829003601f168201915b50505050508152602001600282018054620002d69062000e77565b80601f0160208091040260200160405190810160405280929190818152602001828054620003049062000e77565b8015620003555780601f10620003295761010080835404028352916020019162000355565b820191906000526020600020905b8154815290600101906020018083116200033757829003601f168201915b505050918352505060038201546001600160a01b03166020820152600490910154604090910152826200038a60018462000e51565b60ff1681518110620003a057620003a062000ead565b60200260200101819052508080620003b89062000ec3565b915050620001e8565b50919050565b600354606090600090620003e19060019060ff1662000e51565b60ff1667ffffffffffffffff811115620003ff57620003ff62000ce2565b6040519080825280602002602001820160405280156200043c57816020015b6200042862000b42565b8152602001906001900390816200041e5790505b509050600060015b60035460ff9081169082161015620006415760ff81166000908152600260205260409020600401544210156200062c5760ff8116600090815260026020908152604091829020825160a0810190935280546001600160a01b031683526001810180549192840191620004b69062000e77565b80601f0160208091040260200160405190810160405280929190818152602001828054620004e49062000e77565b8015620005355780601f10620005095761010080835404028352916020019162000535565b820191906000526020600020905b8154815290600101906020018083116200051757829003601f168201915b50505050508152602001600282018054620005509062000e77565b80601f01602080910402602001604051908101604052809291908181526020018280546200057e9062000e77565b8015620005cf5780601f10620005a357610100808354040283529160200191620005cf565b820191906000526020600020905b815481529060010190602001808311620005b157829003601f168201915b505050918352505060038201546001600160a01b031660208201526004909101546040909101528351849060ff851690811062000610576200061062000ead565b60200260200101819052508180620006289062000ec3565b9250505b80620006388162000ec3565b91505062000444565b509092915050565b3360009081526001602052604090205460ff16620006ae5760405162461bcd60e51b815260206004820152601760248201527f4e6f7420616e20617574686f726974792077616c6c657400000000000000000060448201526064015b60405180910390fd5b6000835111620006f95760405162461bcd60e51b81526020600482015260156024820152745469746c652063616e6e6f7420626520656d70747960581b6044820152606401620006a5565b60008251116200074c5760405162461bcd60e51b815260206004820152601b60248201527f4465736372697074696f6e2063616e6e6f7420626520656d70747900000000006044820152606401620006a5565b4281116200079d5760405162461bcd60e51b815260206004820152601e60248201527f456e642074696d65206d75737420626520696e207468652066757475726500006044820152606401620006a5565b600033848484604051620007b19062000b83565b620007c0949392919062000ee5565b604051809103906000f080158015620007dd573d6000803e3d6000fd5b506040805160a0810182526001600160a01b03838116825260208083018981528385018990523360608501526080840188905260035460ff1660009081526002909252939020825181546001600160a01b0319169216919091178155915192935091600182019062000850908262000f84565b506040820151600282019062000867908262000f84565b506060820151600382810180546001600160a01b0319166001600160a01b0390931692909217909155608090920151600490910155805460ff16906000620008af8362000ec3565b91906101000a81548160ff021916908360ff1602179055505050505050565b6001600160a01b03811660009081526001602052604090205460ff1615620009315760405162461bcd60e51b815260206004820152601560248201527457616c6c657420616c72656164792065786973747360581b6044820152606401620006a5565b6001600160a01b038116620009895760405162461bcd60e51b815260206004820152601d60248201527f57616c6c65742063616e6e6f74206265207a65726f20616464726573730000006044820152606401620006a5565b6001600160a01b03166000908152600160208190526040909120805460ff19169091179055565b620009ba62000b42565b60ff8216600090815260026020908152604091829020825160a0810190935280546001600160a01b031683526001810180549192840191620009fc9062000e77565b80601f016020809104026020016040519081016040528092919081815260200182805462000a2a9062000e77565b801562000a7b5780601f1062000a4f5761010080835404028352916020019162000a7b565b820191906000526020600020905b81548152906001019060200180831162000a5d57829003601f168201915b5050505050815260200160028201805462000a969062000e77565b80601f016020809104026020016040519081016040528092919081815260200182805462000ac49062000e77565b801562000b155780601f1062000ae95761010080835404028352916020019162000b15565b820191906000526020600020905b81548152906001019060200180831162000af757829003601f168201915b505050918352505060038201546001600160a01b0316602082015260049091015460409091015292915050565b6040518060a0016040528060006001600160a01b03168152602001606081526020016060815260200160006001600160a01b03168152602001600081525090565b6121fd806200105283390190565b60006020828403121562000ba457600080fd5b81356001600160a01b038116811462000bbc57600080fd5b9392505050565b6000815180845260005b8181101562000beb5760208185018101518683018201520162000bcd565b8181111562000bfe576000602083870101525b50601f01601f19169290920160200192915050565b600060018060a01b03808351168452602083015160a0602086015262000c3d60a086018262000bc3565b90506040840151858203604087015262000c58828262000bc3565b91505081606085015116606086015260808401516080860152809250505092915050565b6000602080830181845280855180835260408601915060408160051b870101925083870160005b8281101562000cd557603f1988860301845262000cc285835162000c13565b9450928501929085019060010162000ca3565b5092979650505050505050565b634e487b7160e01b600052604160045260246000fd5b600082601f83011262000d0a57600080fd5b813567ffffffffffffffff8082111562000d285762000d2862000ce2565b604051601f8301601f19908116603f0116810190828211818310171562000d535762000d5362000ce2565b8160405283815286602085880101111562000d6d57600080fd5b836020870160208301376000602085830101528094505050505092915050565b60008060006060848603121562000da357600080fd5b833567ffffffffffffffff8082111562000dbc57600080fd5b62000dca8783880162000cf8565b9450602086013591508082111562000de157600080fd5b5062000df08682870162000cf8565b925050604084013590509250925092565b60006020828403121562000e1457600080fd5b813560ff8116811462000bbc57600080fd5b60208152600062000bbc602083018462000c13565b634e487b7160e01b600052601160045260246000fd5b600060ff821660ff84168082101562000e6e5762000e6e62000e3b565b90039392505050565b600181811c9082168062000e8c57607f821691505b602082108103620003c157634e487b7160e01b600052602260045260246000fd5b634e487b7160e01b600052603260045260246000fd5b600060ff821660ff810362000edc5762000edc62000e3b565b60010192915050565b6001600160a01b038516815260806020820181905260009062000f0b9083018662000bc3565b828103604084015262000f1f818662000bc3565b91505082606083015295945050505050565b601f82111562000f7f57600081815260208120601f850160051c8101602086101562000f5a5750805b601f850160051c820191505b8181101562000f7b5782815560010162000f66565b5050505b505050565b815167ffffffffffffffff81111562000fa15762000fa162000ce2565b62000fb98162000fb2845462000e77565b8462000f31565b602080601f83116001811462000ff1576000841562000fd85750858301515b600019600386901b1c1916600185901b17855562000f7b565b600085815260208120601f198616915b82811015620010225788860151825594840194600190910190840162001001565b5085821015620010415787850151600019600388901b60f8161c191681555b5050505050600190811b0190555056fe60806040526007805461ffff19166101011790553480156200002057600080fd5b50604051620021fd380380620021fd83398101604081905262000043916200015f565b600080546001600160a01b0319166001600160a01b03861617905560016200006c848262000280565b5060026200007b838262000280565b5060035550506004805460ff19169055506200034c565b634e487b7160e01b600052604160045260246000fd5b600082601f830112620000ba57600080fd5b81516001600160401b0380821115620000d757620000d762000092565b604051601f8301601f19908116603f0116810190828211818310171562000102576200010262000092565b816040528381526020925086838588010111156200011f57600080fd5b600091505b8382101562000143578582018301518183018401529082019062000124565b83821115620001555760008385830101525b9695505050505050565b600080600080608085870312156200017657600080fd5b84516001600160a01b03811681146200018e57600080fd5b60208601519094506001600160401b0380821115620001ac57600080fd5b620001ba88838901620000a8565b94506040870151915080821115620001d157600080fd5b50620001e087828801620000a8565b606096909601519497939650505050565b600181811c908216806200020657607f821691505b6020821081036200022757634e487b7160e01b600052602260045260246000fd5b50919050565b601f8211156200027b57600081815260208120601f850160051c81016020861015620002565750805b601f850160051c820191505b81811015620002775782815560010162000262565b5050505b505050565b81516001600160401b038111156200029c576200029c62000092565b620002b481620002ad8454620001f1565b846200022d565b602080601f831160018114620002ec5760008415620002d35750858301515b600019600386901b1c1916600185901b17855562000277565b600085815260208120601f198616915b828110156200031d57888601518255948401946001909101908401620002fc565b50858210156200033c5787850151600019600388901b60f8161c191681555b5050505050600190811b01905550565b611ea1806200035c6000396000f3fe608060405234801561001057600080fd5b50600436106100cf5760003560e01c8063acc84cde1161008c578063e1f6c6c111610066578063e1f6c6c1146101b2578063ed836bc3146101d2578063ed8bddeb146101e8578063f900cf74146101fd57600080fd5b8063acc84cde14610179578063c3c5a5471461018c578063df49c4de1461019f57600080fd5b80632f85f849146100d45780633e06921a1461010257806359f784681461011757806365fc783c1461012c5780638da5cb5b14610146578063a38ca97214610171575b600080fd5b6100e76100e23660046116fe565b610210565b6040516100f99695949392919061176d565b60405180910390f35b61011561011036600461189f565b6104f6565b005b61011f6107a6565b6040516100f99190611980565b6101346108f9565b60405160ff90911681526020016100f9565b600054610159906001600160a01b031681565b6040516001600160a01b0390911681526020016100f9565b610134610918565b610115610187366004611993565b61092d565b61013461019a366004611a65565b610aab565b61011f6101ad366004611a8e565b610b10565b6101c56101c03660046116fe565b610cd5565b6040516100f99190611ac1565b6101da611109565b6040516100f9929190611bb7565b6101f0611230565b6040516100f99190611be5565b61011f61020b3660046116fe565b611631565b60056020526000908152604090208054819061022b90611c85565b80601f016020809104026020016040519081016040528092919081815260200182805461025790611c85565b80156102a45780601f10610279576101008083540402835291602001916102a4565b820191906000526020600020905b81548152906001019060200180831161028757829003601f168201915b5050505050908060010180546102b990611c85565b80601f01602080910402602001604051908101604052809291908181526020018280546102e590611c85565b80156103325780601f1061030757610100808354040283529160200191610332565b820191906000526020600020905b81548152906001019060200180831161031557829003601f168201915b50505050509080600201805461034790611c85565b80601f016020809104026020016040519081016040528092919081815260200182805461037390611c85565b80156103c05780601f10610395576101008083540402835291602001916103c0565b820191906000526020600020905b8154815290600101906020018083116103a357829003601f168201915b5050506003840154600485018054949561ffff9092169491935091506103e590611c85565b80601f016020809104026020016040519081016040528092919081815260200182805461041190611c85565b801561045e5780601f106104335761010080835404028352916020019161045e565b820191906000526020600020905b81548152906001019060200180831161044157829003601f168201915b50505050509080600501805461047390611c85565b80601f016020809104026020016040519081016040528092919081815260200182805461049f90611c85565b80156104ec5780601f106104c1576101008083540402835291602001916104ec565b820191906000526020600020905b8154815290600101906020018083116104cf57829003601f168201915b5050505050905086565b600060015b60075460ff610100909104811690821610156105545760ff811660009081526006602081905260409091200154336001600160a01b03909116036105425760019150610554565b8061054c81611cd5565b9150506104fb565b5080156105a85760405162461bcd60e51b815260206004820152601c60248201527f596f75206861766520616c726561647920726567697374657265642e0000000060448201526064015b60405180910390fd5b600054336001600160a01b039091160361061c5760405162461bcd60e51b815260206004820152602f60248201527f596f7520646f6e277420686176652074686520617574686f7269747920746f2060448201526e31b932b0ba329030902b37ba32b91760891b606482015260840161059f565b600754604080516101208101825289815260208082018a90526001600160801b03891682840152606082018890526080820187905260a082018690523360c0830152600060e0830181905261010080840182905290940460ff16808552600690915291909220825191929181906106939082611d43565b50602082015160018201906106a89082611d43565b5060408201516002820180546fffffffffffffffffffffffffffffffff19166001600160801b03909216919091179055606082015160038201906106ec9082611d43565b50608082015160048201906107019082611d43565b5060a082015160058201906107169082611d43565b5060c08201516006909101805460e0840151610100948501511515600160a81b0260ff60a81b19911515600160a01b026001600160a81b03199093166001600160a01b03909516949094179190911716919091179055600780549190910460ff1690600161078383611cd5565b91906101000a81548160ff021916908360ff160217905550505050505050505050565b6000546060906001600160a01b031633146108155760405162461bcd60e51b815260206004820152602960248201527f596f7520646f6e2774206861766520617574686f7269747920746f20656e642060448201526832b632b1ba34b7b71760b91b606482015260840161059f565b60045460ff16156108685760405162461bcd60e51b815260206004820152601760248201527f456c656374696f6e20616c726561647920656e6465642e000000000000000000604482015260640161059f565b6003544210156108b45760405162461bcd60e51b815260206004820152601760248201527622b632b1ba34b7b7103737ba1032b73232b2103cb2ba1760491b604482015260640161059f565b506004805460ff1916600117905560408051808201909152601c81527f456c656374696f6e20656e646564207375636365737366756c6c792100000000602082015290565b60075460009061091390600190610100900460ff16611e03565b905090565b6007546000906109139060019060ff16611e03565b6000546001600160a01b031633146109ad5760405162461bcd60e51b815260206004820152603960248201527f596f7520646f6e277420686176652074686520617574686f7269747920746f2060448201527f637265617465206120506f6c69746963616c2050617274792e00000000000000606482015260840161059f565b6007546040805160c08101825287815260208082018890528183018790526000606083018190526080830187905260a0830186905260ff90941680855260059091529190922082519192918190610a049082611d43565b5060208201516001820190610a199082611d43565b5060408201516002820190610a2e9082611d43565b50606082015160038201805461ffff191661ffff90921691909117905560808201516004820190610a5f9082611d43565b5060a08201516005820190610a749082611d43565b50506007805460ff1691506000610a8a83611cd5565b91906101000a81548160ff021916908360ff16021790555050505050505050565b600060015b60075460ff61010090910481169082161015610b075760ff8116600090815260066020819052604090912001546001600160a01b03808516911603610af55792915050565b80610aff81611cd5565b915050610ab0565b50600092915050565b60ff8116600090815260066020819052604090912001546060906001600160a01b03163314610b815760405162461bcd60e51b815260206004820181905260248201527f596f752063616e277420766f7465206f6e206f746865727320626568616c662e604482015260640161059f565b60ff80831660009081526006602081905260409091200154600160a81b90041615610bee5760405162461bcd60e51b815260206004820152601760248201527f596f752063616e6e6f7420646f75626c6520766f74652e000000000000000000604482015260640161059f565b600354421115610c325760405162461bcd60e51b815260206004820152600f60248201526e22b632b1ba34b7b71032b73232b21760891b604482015260640161059f565b60ff8083166000908152600660208181526040808420909201805460ff60a81b1916600160a81b17905592861682526005909252908120600301805461ffff1691610c7c83611e26565b91906101000a81548161ffff021916908361ffff160217905550506040518060400160405280601c81526020017f596f75206861766520766f746564207375636365737366756c6c792100000000815250905092915050565b604080516101208101825260608082526020820181905260009282018390528082018190526080820181905260a082015260c0810182905260e081018290526101008101919091526000546001600160a01b0316331480610d54575060ff8216600090815260066020819052604090912001546001600160a01b031633145b610dbd5760405162461bcd60e51b815260206004820152603460248201527f596f7520646f6e2774206861766520617574686f7269747920746f206163636560448201527339b9903a3434b99034b73337b936b0ba34b7b71760611b606482015260840161059f565b60ff82166000908152600660205260409081902081516101208101909252805482908290610dea90611c85565b80601f0160208091040260200160405190810160405280929190818152602001828054610e1690611c85565b8015610e635780601f10610e3857610100808354040283529160200191610e63565b820191906000526020600020905b815481529060010190602001808311610e4657829003601f168201915b50505050508152602001600182018054610e7c90611c85565b80601f0160208091040260200160405190810160405280929190818152602001828054610ea890611c85565b8015610ef55780601f10610eca57610100808354040283529160200191610ef5565b820191906000526020600020905b815481529060010190602001808311610ed857829003601f168201915b505050918352505060028201546001600160801b03166020820152600382018054604090920191610f2590611c85565b80601f0160208091040260200160405190810160405280929190818152602001828054610f5190611c85565b8015610f9e5780601f10610f7357610100808354040283529160200191610f9e565b820191906000526020600020905b815481529060010190602001808311610f8157829003601f168201915b50505050508152602001600482018054610fb790611c85565b80601f0160208091040260200160405190810160405280929190818152602001828054610fe390611c85565b80156110305780601f1061100557610100808354040283529160200191611030565b820191906000526020600020905b81548152906001019060200180831161101357829003601f168201915b5050505050815260200160058201805461104990611c85565b80601f016020809104026020016040519081016040528092919081815260200182805461107590611c85565b80156110c25780601f10611097576101008083540402835291602001916110c2565b820191906000526020600020905b8154815290600101906020018083116110a557829003601f168201915b5050509183525050600691909101546001600160a01b038116602083015260ff600160a01b8204811615156040840152600160a81b90910416151560609091015292915050565b6060806001600281805461111c90611c85565b80601f016020809104026020016040519081016040528092919081815260200182805461114890611c85565b80156111955780601f1061116a57610100808354040283529160200191611195565b820191906000526020600020905b81548152906001019060200180831161117857829003601f168201915b505050505091508080546111a890611c85565b80601f01602080910402602001604051908101604052809291908181526020018280546111d490611c85565b80156112215780601f106111f657610100808354040283529160200191611221565b820191906000526020600020905b81548152906001019060200180831161120457829003601f168201915b50505050509050915091509091565b61126d6040518060c00160405280606081526020016060815260200160608152602001600061ffff16815260200160608152602001606081525090565b60045460ff166112b95760405162461bcd60e51b815260206004820152601760248201527622b632b1ba34b7b7103737ba1032b73232b2103cb2ba1760491b604482015260640161059f565b600060015b60075460ff90811690821610156113225760ff811660009081526005602052604081206003015461ffff161561130f575060ff8116600090815260056020526040902060030154909150819061ffff165b508061131a81611cd5565b9150506112be565b5060ff811660009081526005602052604090819020815160c0810190925280548290829061134f90611c85565b80601f016020809104026020016040519081016040528092919081815260200182805461137b90611c85565b80156113c85780601f1061139d576101008083540402835291602001916113c8565b820191906000526020600020905b8154815290600101906020018083116113ab57829003601f168201915b505050505081526020016001820180546113e190611c85565b80601f016020809104026020016040519081016040528092919081815260200182805461140d90611c85565b801561145a5780601f1061142f5761010080835404028352916020019161145a565b820191906000526020600020905b81548152906001019060200180831161143d57829003601f168201915b5050505050815260200160028201805461147390611c85565b80601f016020809104026020016040519081016040528092919081815260200182805461149f90611c85565b80156114ec5780601f106114c1576101008083540402835291602001916114ec565b820191906000526020600020905b8154815290600101906020018083116114cf57829003601f168201915b5050509183525050600382015461ffff16602082015260048201805460409092019161151790611c85565b80601f016020809104026020016040519081016040528092919081815260200182805461154390611c85565b80156115905780601f1061156557610100808354040283529160200191611590565b820191906000526020600020905b81548152906001019060200180831161157357829003601f168201915b505050505081526020016005820180546115a990611c85565b80601f01602080910402602001604051908101604052809291908181526020018280546115d590611c85565b80156116225780601f106115f757610100808354040283529160200191611622565b820191906000526020600020905b81548152906001019060200180831161160557829003601f168201915b50505050508152505091505090565b60ff8116600090815260066020819052604090912001546060906001600160a01b031633146116a25760405162461bcd60e51b815260206004820152601c60248201527f596f752063616e277420766572696679207468697320766f7465722e00000000604482015260640161059f565b60ff8216600090815260066020818152604092839020909101805460ff60a01b1916600160a01b179055815160608101909252602480835290611e489083013992915050565b803560ff811681146116f957600080fd5b919050565b60006020828403121561171057600080fd5b611719826116e8565b9392505050565b6000815180845260005b818110156117465760208185018101518683018201520161172a565b81811115611758576000602083870101525b50601f01601f19169290920160200192915050565b60c08152600061178060c0830189611720565b82810360208401526117928189611720565b905082810360408401526117a68188611720565b905061ffff8616606084015282810360808401526117c48186611720565b905082810360a08401526117d88185611720565b9998505050505050505050565b634e487b7160e01b600052604160045260246000fd5b600082601f83011261180c57600080fd5b813567ffffffffffffffff80821115611827576118276117e5565b604051601f8301601f19908116603f0116810190828211818310171561184f5761184f6117e5565b8160405283815286602085880101111561186857600080fd5b836020870160208301376000602085830101528094505050505092915050565b80356001600160801b03811681146116f957600080fd5b60008060008060008060c087890312156118b857600080fd5b863567ffffffffffffffff808211156118d057600080fd5b6118dc8a838b016117fb565b975060208901359150808211156118f257600080fd5b6118fe8a838b016117fb565b965061190c60408a01611888565b9550606089013591508082111561192257600080fd5b61192e8a838b016117fb565b9450608089013591508082111561194457600080fd5b6119508a838b016117fb565b935060a089013591508082111561196657600080fd5b5061197389828a016117fb565b9150509295509295509295565b6020815260006117196020830184611720565b600080600080600060a086880312156119ab57600080fd5b853567ffffffffffffffff808211156119c357600080fd5b6119cf89838a016117fb565b965060208801359150808211156119e557600080fd5b6119f189838a016117fb565b95506040880135915080821115611a0757600080fd5b611a1389838a016117fb565b94506060880135915080821115611a2957600080fd5b611a3589838a016117fb565b93506080880135915080821115611a4b57600080fd5b50611a58888289016117fb565b9150509295509295909350565b600060208284031215611a7757600080fd5b81356001600160a01b038116811461171957600080fd5b60008060408385031215611aa157600080fd5b611aaa836116e8565b9150611ab8602084016116e8565b90509250929050565b6020815260008251610120806020850152611ae0610140850183611720565b91506020850151601f1980868503016040870152611afe8483611720565b935060408701519150611b1c60608701836001600160801b03169052565b6060870151915080868503016080870152611b378483611720565b935060808701519150808685030160a0870152611b548483611720565b935060a08701519150808685030160c087015250611b728382611720565b92505060c0850151611b8f60e08601826001600160a01b03169052565b5060e0850151610100611ba58187018315159052565b90950151151593019290925250919050565b604081526000611bca6040830185611720565b8281036020840152611bdc8185611720565b95945050505050565b602081526000825160c06020840152611c0160e0840182611720565b90506020840151601f1980858403016040860152611c1f8383611720565b92506040860151915080858403016060860152611c3c8383611720565b925061ffff606087015116608086015260808601519150808584030160a0860152611c678383611720565b925060a08601519150808584030160c086015250611bdc8282611720565b600181811c90821680611c9957607f821691505b602082108103611cb957634e487b7160e01b600052602260045260246000fd5b50919050565b634e487b7160e01b600052601160045260246000fd5b600060ff821660ff8103611ceb57611ceb611cbf565b60010192915050565b601f821115611d3e57600081815260208120601f850160051c81016020861015611d1b5750805b601f850160051c820191505b81811015611d3a57828155600101611d27565b5050505b505050565b815167ffffffffffffffff811115611d5d57611d5d6117e5565b611d7181611d6b8454611c85565b84611cf4565b602080601f831160018114611da65760008415611d8e5750858301515b600019600386901b1c1916600185901b178555611d3a565b600085815260208120601f198616915b82811015611dd557888601518255948401946001909101908401611db6565b5085821015611df35787850151600019600388901b60f8161c191681555b5050505050600190811b01905550565b600060ff821660ff841680821015611e1d57611e1d611cbf565b90039392505050565b600061ffff808316818103611e3d57611e3d611cbf565b600101939250505056fe596f752068617665206265656e207665726966696564207375636365737366756c6c7921a264697066735822122030aa2c2e9a0ca7698e82e299cf891cfe03cb9b525f844af41ec7f30945e945e864736f6c634300080f0033a2646970667358221220a650731c84578d8488bd00c4a060d7cb13445955f0fe5aaf707685715639ca0e64736f6c634300080f0033",
    "sourcePath": "e:/GitHub/blockchain-voting/src/web3/contracts/votingFactory.sol",
    "compiler": {
        "name": "solc",
        "version": "0.8.15+commit.e14f2714"
    },
    "functionHashes": {
        "_authorityWallets(address)": "138d552d",
        "_owner()": "b2bdfa7b",
        "addAuthorityWallet(address)": "a344cd5d",
        "createElection(string,string,uint256)": "911cbef9",
        "getActiveElections()": "8a3b63b0",
        "getAllElections()": "7fd5f268",
        "getElection(uint8)": "cbaed41a"
    },
    "gasEstimates": {
        "creation": {
            "codeDepositCost": "2586400",
            "executionCost": "75562",
            "totalCost": "2661962"
        },
        "external": {
            "_authorityWallets(address)": "2486",
            "_owner()": "2381",
            "addAuthorityWallet(address)": "26857",
            "createElection(string,string,uint256)": "infinite",
            "getActiveElections()": "infinite",
            "getAllElections()": "infinite",
            "getElection(uint8)": "infinite"
        }
    }
}